:1000000050110120999B00001B7B0100859B000083
:10001000859B0000859B0000859B0000859B000060
:10002000000000000000000000000000759C0000BF
:10003000859B000000000000399E0000859B0000A9
:10004000BD9E0000BD9E0000BD9E0000BD9E000044
:10005000BD9E0000BD9E0000BD9E0000BD9E000034
:10006000BD9E0000BD9E0000BD9E0000BD9E000024
:10007000BD9E0000BD9E0000BD9E0000BD9E000014
:1004C80081F0004102E000BF83F0004330B54FEAFD
:1004D80041044FEA430594EA050F08BF90EA020F6A
:1004E8001FBF54EA000C55EA020C7FEA645C7FEAFD
:1004F800655C00F0E2804FEA5454D4EB5555B8BF20
:100508006D420CDD2C4480EA020281EA030382EA90
:10051800000083EA010180EA020281EA0303362D22
:1005280088BF30BD11F0004F4FEA01314FF4801CF5
:100538004CEA113102D0404261EB410113F0004F07
:100548004FEA03334CEA133302D0524263EB4303BE
:1005580094EA050F00F0A780A4F10104D5F1200E5C
:100568000DDB02FA0EFC22FA05F2801841F10001B7
:1005780003FA0EF2801843FA05F359410EE0A5F18B
:1005880020050EF1200E012A03FA0EFC28BF4CF0BC
:10059800020C43FA05F3C01851EBE37101F0004572
:1005A80007D54FF0000EDCF1000C7EEB00006EEB7F
:1005B8000101B1F5801F1BD3B1F5001F0CD3490809
:1005C8005FEA30004FEA3C0C04F101044FEA445260
:1005D80012F5800F80F09A80BCF1004F08BF5FEAE7
:1005E800500C50F1000041EB045141EA050130BDC7
:1005F8005FEA4C0C404141EB0101013C28BFB1F5D9
:10060800801FE9D291F0000F04BF01460020B1FA23
:1006180081F308BF2033A3F10B03B3F120020CDAF6
:100628000C3208DD02F1140CC2F10C0201FA0CF0D4
:1006380021FA02F10CE002F11402D8BFC2F1200C39
:1006480001FA02F120FA0CFCDCBF41EA0C019040EF
:10065800E41AA2BF01EB0451294330BD6FEA040438
:100668001F3C1CDA0C340EDC04F11404C4F1200223
:1006780020FA04F001FA02F340EA030021FA04F335
:1006880045EA030130BDC4F10C04C4F1200220FA8C
:1006980002F001FA04F340EA0300294630BD21FACA
:1006A80004F0294630BD94F0000F83F4801306BF90
:1006B80081F480110134013D4EE77FEA645C18BF84
:1006C8007FEA655C29D094EA050F08BF90EA020F1B
:1006D80005D054EA000C04BF1946104630BD91EA13
:1006E800030F1EBF0021002030BD5FEA545C05D116
:1006F8004000494128BF41F0004130BD14F5800455
:100708003CBF01F5801130BD01F0004545F0FE41C8
:1007180041F470014FF0000030BD7FEA645C1ABFFD
:10072800194610467FEA655C1CBF0B46024650EA34
:10073800013406BF52EA033591EA030F41F4002160
:1007480030BD00BF90F0000F04BF0021704730B5E6
:100758004FF4806404F132044FF000054FF00001BB
:1007680050E700BF90F0000F04BF0021704730B57C
:100778004FF4806404F1320410F0004548BF404251
:100788004FF000013EE700BF42004FEAE2014FEAA6
:1007980031014FEA02701FBF12F07F4393F07F4F81
:1007A80081F06051704732F07F4208BF704793F084
:1007B8007F4F04BF41F40021704730B54FF4607497
:1007C80001F0004521F000411CE700BF50EA01029A
:1007D80008BF704730B54FF000050AE050EA010243
:1007E80008BF704730B511F0004502D5404261EBB3
:1007F80041014FF4806404F132045FEA915C3FF4F4
:10080800D8AE4FF003025FEADC0C18BF03325FEA90
:10081800DC0C18BF033202EBDC02C2F1200300FA41
:1008280003FC20FA02F001FA03FE40EA0E0021FA66
:1008380002F11444BDE600BF80F0004002E000BFB2
:1008480081F0004142001FBF5FEA410392EA030FB3
:100858007FEA226C7FEA236C6AD04FEA1262D2EBFD
:100868001363C1BFD218414048404140B8BF5B4202
:10087800192B88BF704710F0004F40F4000020F09B
:100888007F4018BF404211F0004F41F4000121F0B1
:100898007F4118BF494292EA030F3FD0A2F10102FB
:1008A80041FA03FC10EB0C00C3F1200301FA03F139
:1008B80000F0004302D5494260EB4000B0F5000F5C
:1008C80013D3B0F1807F06D340084FEA310102F11B
:1008D8000102FE2A51D2B1F1004F40EBC25008BFCD
:1008E80020F0010040EA03007047490040EB000097
:1008F800013A28BFB0F5000FEDD2B0FA80FCACF198
:10090800080CB2EB0C0200FA0CF0AABF00EBC250C4
:1009180052421843BCBFD0401843704792F0000FB2
:1009280081F4000106BF80F400000132013BB5E705
:100938004FEA41037FEA226C18BF7FEA236C21D07B
:1009480092EA030F04D092F0000F08BF08467047E0
:1009580090EA010F1CBF0020704712F07F4F04D1AE
:10096800400028BF40F00040704712F100723CBFC1
:1009780000F50000704700F0004343F0FE4040F4EB
:10098800000070477FEA226216BF08467FEA2363A9
:100998000146420206BF5FEA412390EA010F40F494
:1009A800800070474FF0000304E000BF10F00043E0
:1009B80048BF40425FEA000C08BF704743F09643C7
:1009C80001464FF000001CE050EA010208BF7047E2
:1009D8004FF000030AE000BF50EA010208BF704769
:1009E80011F0004302D5404261EB41015FEA010C7E
:1009F80002BF84460146002043F0B64308BFA3F176
:100A08008053A3F50003BCFA8CF2083AA3EBC25357
:100A180010DB01FA02FC634400FA02FCC2F1200276
:100A2800BCF1004F20FA02F243EB020008BF20F0AD
:100A38000100704702F1200201FA02FCC2F1200213
:100A480050EA4C0021FA02F243EB020008BF20EA08
:100A5800DC7070474FF0FF0C1CEAD0521EBF1CEA36
:100A6800D15392EA0C0F93EA0C0F6FD01A4480EA24
:100A7800010C400218BF5FEA41211ED04FF000630D
:100A880043EA501043EA5111A0FB01310CF0004039
:100A9800B1F5000F3EBF490041EAD3715B0040EA5F
:100AA800010062F17F02FD2A1DD8B3F1004F40EB2F
:100AB800C25008BF20F00100704790F0000F0CF002
:100AC800004C08BF49024CEA502040EA51207F3AC6
:100AD800C2BFD2F1FF0340EAC250704740F40000A1
:100AE8004FF00003013A5DDC12F1190FDCBF00F092
:100AF80000407047C2F10002410021FA02F1C2F140
:100B0800200200FA02FC5FEA310040F1000053EADB
:100B18004C0308BF20EADC70704792F0000F00F029
:100B2800004C02BF400010F4000F013AF9D040EA2F
:100B38000C0093F0000F01F0004C02BF490011F4C3
:100B4800000F013BF9D041EA0C018FE70CEAD153C1
:100B580092EA0C0F18BF93EA0C0F0AD030F0004C41
:100B680018BF31F0004CD8D180EA010000F00040F5
:100B7800704790F0000F17BF90F0004F084691F0B3
:100B8800000F91F0004F14D092EA0C0F01D14202ED
:100B98000FD193EA0C0F03D14B0218BF084608D1B6
:100BA80080EA010000F0004040F0FE4040F4000000
:100BB800704740F0FE4040F4400070474FF0FF0C93
:100BC8001CEAD0521EBF1CEAD15392EA0C0F93EADA
:100BD8000C0F69D0A2EB030280EA010C49024FEA2C
:100BE800402037D04FF0805343EA111143EA1013E5
:100BF8000CF000408B4238BF5B0042F17D024FF49D
:100C0800000C8B4224BF5B1A40EA0C00B3EB510F77
:100C180024BFA3EB510340EA5C00B3EB910F24BF60
:100C2800A3EB910340EA9C00B3EBD10F24BFA3EBE5
:100C3800D10340EADC001B0118BF5FEA1C1CE0D1AD
:100C4800FD2A3FF650AF8B4240EBC25008BF20F060
:100C5800010070470CF0004C4CEA50207F32C2BFB4
:100C6800D2F1FF0340EAC250704740F400004FF051
:100C78000003013A37E792F0000F00F0004C02BF82
:100C8800400010F4000F013AF9D040EA0C0093F04C
:100C9800000F01F0004C02BF490011F4000F013BA6
:100CA800F9D041EA0C0195E70CEAD15392EA0C0F0E
:100CB80008D142027FF47DAF93EA0C0F7FF470AF46
:100CC800084676E793EA0C0F04D14B023FF44CAF89
:100CD80008466EE730F0004C18BF31F0004CCAD11E
:100CE80030F000427FF45CAF31F000437FF43CAF5A
:100CF8005FE700BF4FF0FF3C06E000BF4FF0010C7C
:100D080002E000BF4FF0010C4DF804CD4FEA40025D
:100D18004FEA41037FEA226C18BF7FEA236C11D0A7
:100D280001B052EA530C18BF90EA010F58BFB2EB5A
:100D3800030088BFC81738BF6FEAE17018BF40F0DA
:100D4800010070477FEA226C02D15FEA402C05D18E
:100D58007FEA236CE4D15FEA412CE1D05DF8040B13
:100D6800704700BF844608466146FFE70FB5FFF7A6
:100D7800C9FF002848BF10F1000F0FBD4DF808ED5E
:100D8800FFF7F4FF0CBF012000205DF808FB00BF4F
:100D98004DF808EDFFF7EAFF34BF012000205DF8A9
:100DA80008FB00BF4DF808EDFFF7E0FF94BF0120F6
:100DB80000205DF808FB00BF4DF808EDFFF7D2FFF3
:100DC80094BF012000205DF808FB00BF4DF808ED36
:100DD800FFF7C8FF34BF012000205DF808FB00BF03
:100DE8007BB972B90029BEBF00204FF0004106E070
:100DF80008BF00281CBF6FF000414FF0FF3000F023
:100E080057B8ADF1080C6DE904CE002909DB002BB9
:100E18001ADB00F069F8DDF804E0DDE9022304B02C
:100E28007047404261EB4101002B1BDB00F05CF88E
:100E3800DDF804E0DDE9022304B0404261EB410142
:100E4800524263EB43037047524263EB430300F0A3
:100E58004BF8DDF804E0DDE9022304B0404261EB21
:100E680041017047524263EB430300F03DF8DDF85F
:100E780004E0DDE9022304B0524263EB4303704708
:100E880053B94AB9002908BF00281CBF4FF0FF31E9
:100E98004FF0FF3000F00CB8ADF1080C6DE904CE4E
:100EA80000F022F8DDF804E0DDE9022304B0704721
:100EB800704700BF10F8012B11F8013B012A28BF29
:100EC8009A42F7D0D01A7047034611F8012B03F85D
:100ED800012B002AF9D17047034613F8012B002A89
:100EE800FBD1181A013870472DE9F0478C468E4619
:100EF800089E154604461946002B40F0D0807245DE
:100F080047D9B2FA82F74FB1C7F120030EFA07FCAE
:100F1800BD40BC4020FA03F343EA0C0C4FEA154EDF
:100F2800A8B2230CBCFBFEF80EFB18CC08FB00F99A
:100F380043EA0C43994528D9EB1808F1FF3204D24B
:100F4800994502D9A8F102022B44A3EB0903A4B2E4
:100F5800B3FBFEFC0EFB1C330CFB00F044EA03441D
:100F6800A04214D92C190CF1FF3304D2A04202D9A3
:100F7800ACF102032C44241A43EA02401EB1FC409F
:100F8800002334607360BDE8F0874246DDE76346BE
:100F9800F1E7002A79D0B2FA82F3002B3FD0194644
:100FA800C1F1200302FA01F500FA01F42EFA03F266
:100FB8000EFA01FE20FA03F3AFB243EA0E034FEA3A
:100FC800154EB2FBFEFC0EFB1C201A0C0CFB07F89E
:100FD80042EA004290455AD9AA180CF1FF3004D2CF
:100FE800904502D9ACF102002A44A2EB08029BB258
:100FF800B2FBFEFC0EFB1C220CFB07F743EA024384
:101008009F4246D9EB180CF1FF3204D29F4202D915
:10101800ACF102022B44DB1B42EA004202E0AEEBD9
:10102800020301224FEA154EAFB2200CB3FBFEFCBF
:101038000EFB1C330CFB07F840EA034398452AD9FA
:10104800EB180CF1FF3004D2984502D9ACF102003C
:101058002B44A3EB0803A4B2B3FBFEFC0EFB1C332A
:101068000CFB07F744EA0344A74216D92C190CF1E4
:10107800FF3304D2A74202D9ACF102032C44E41B8B
:1010880043EA00400F46114678E71F2188E760468B
:10109800ABE76246BFE76046DBE76346EFE77345C9
:1010A80006D916B9002108466DE7C6E9000EF9E72A
:1010B800B3FA83F787B9734501D3824207D8841AF4
:1010C8006EEB030301209C461EB900215BE73846FE
:1010D800FAE7C6E9004CF8E7C7F1200CBB4000FA74
:1010E80007F422FA0CF520FA0CF1BA401D432EFA47
:1010F8000CF30EFA07FE4FEA154941EA0E011FFAF2
:1011080085FEB3FBF9F809FB18300B0C08FB0EFA47
:1011180043EA00439A4540D9EB1808F1FF3004D25E
:101128009A4502D9A8F102002B44A3EB0A0389B21D
:10113800B3FBF9F809FB183308FB0EFE41EA03413B
:101148008E452CD9691808F1FF3304D28E4502D98F
:10115800A8F10203294443EA0040A1EB0E01A0FBD9
:1011680002984145CE46434602D306D14C4504D2A7
:101178000138B9EB020E68EB0503002EA5D0B4EBDD
:101188000E0261EB030101FA0CFC22FA07F3F940A5
:101198004CEA0303C6E9003197E74046C5E74346F2
:1011A800D9E70000000000002DE9F04704460F468B
:1011B800164688B018F034FB4FF47A75A0FB050C7E
:1011C80047F6122205FB01C10023FFF759FE012F44
:1011D80080460D4607D102460B462046264915F0A3
:1011E8003EFC002011E0766824483146FFF762FE95
:1011F80070B131462248FFF75DFE48B120463246BD
:10120800204915F048FC6FF0040008B0BDE8F087ED
:10121800404617A3D3E900232946FFF7E1FD064618
:101228000D4610461946184A0023FFF7D9FD804697
:101238000F46104619464EF660220023FFF7D0FDF0
:1012480082468946104619464FF47A720023FFF702
:10125800C7FDCDE902A9CDE90623CDE9040132464F
:101268002B462046CDE90087084915F0F8FBB8E77A
:10127800005C2605000000001002020021020200A6
:10128800240202002D02020080EE36004502020010
:101298001FB5184814F0D1FC002009F085FE18B9D4
:1012A800154814F0CAFC0CE00023019303930123B2
:1012B8006946029314F0A9FF011E06DA0F4814F0DC
:1012C800BCFC002005B05DF804FB029B9B07FCD129
:1012D800039909B10A48F2E70A4BD3F840230A4BAD
:1012E800292A01D0332A01D101221A630122074891
:1012F8009A60D6E788C20100A4C20100C5C20100F5
:10130800DFC2010000C0FF0000E01050FFC2010072
:1013180000224FF0FF310D4BC3F80024C3F890149E
:10132800C3F82022D3F8202201221A61D3F8202200
:10133800002AFBD00022C3F82022D3F82032044B25
:101348001B780BB9034A1370704700BF00A0085000
:10135800A4450020A245002010B5FFF7D9FF044B93
:101368001B6823B11B6813B1BDE81040184710BDB6
:10137800F02E002073B5124B124C187020460D4603
:1013880017F05AFE23680026D3F800224FF0FF32E8
:10139800C3F800622946C3F8082320460DF0DCF99B
:1013A80001230246009320464FF00113314617F0FF
:1013B80066FE204602B0BDE8704017F037BE00BF99
:1013C800A5450020200100201FB501240022444B20
:1013D800A142C3F80447C3F8442EC3F8482EC3F803
:1013E8003C2EC3F8404E2AD0022922D0002959D1D8
:1013F800AB22C3F8342E4FF0AB32C3F82C2E0023A7
:10140800CDF80530CDF80130FF238DF808304FF4C2
:101418008273ADF80A30012304388DF80C300B289C
:101428005BD8DFE800F05541415A5A55555A5A5A87
:101438005A11CC22C3F8342E4FF0CC32DDE76A22A1
:10144800C3F8342E274AD8E702238DF805307F23C6
:101458008DF808300023ADF80A308DF80C3085235C
:10146800214A13809DF807309DF804205B0743EA62
:1014780082539DF8052043EA0263194A43F00803A2
:10148800C2F8203E9DF80A309DF80B101B0443EA71
:1014980001639DF808100B439DF80C1043EA416363
:1014A800C2F8283E04B010BD40F20233ADF8043053
:1014B800032340F203128DF80730ADF80A30084BC9
:1014C800C3F8442E0022C3F8482E4FF48B73C7E7A5
:1014D8008DF8053040F20713C2E74FF48373BFE776
:1014E80000A008501B81FE58A045002038B50446CE
:1014F8000D46FFF769FF0F2C14BFFF237E230C4C0A
:10150800012D237010D0022D08D01DB9FF21601CB9
:1015180016F08BFB074BC3F8D04E38BDFF22CC2109
:10152800601C18F0B3FDF5E7FF22F021F8E700BFD3
:10153800A646002000A008500F280DD1A1F10B03EA
:101548000F2B0CD801EB810101F62E11054BA1F5EB
:101558001661C3F80817704701F51661F6E740F6FB
:101568006511F3E700A0085000F12E0310B50446FA
:10157800362B5ED8DFE803F01C5D5D5D5D5D645D64
:101588005D5D5D5D5D5D5D5D5D5D2F5D5D5D5D5DB1
:10159800625D625D315D335D355D375D393B3D3F91
:1015A80041434547494B604D4F51535557595B008F
:1015B8004FF48873244AC2F81037244B1B78002B49
:1015C80041D12146224814F038FB2146BDE810409D
:1015D800204814F032BB0123ECE70323EAE7042395
:1015E800E8E70523E6E70623E4E70723E2E708231D
:1015F800E0E70923DEE70A23DCE70B23DAE70D231C
:10160800D8E70F23D6E71123D4E71323D2E715230E
:10161800D0E71B23CEE71F23CCE72323CAE72823E1
:10162800C8E72D23C6E73323C4E73923C2E73F239E
:10163800C0E7094814F001FB1823BBE70223B9E708
:101648004FF49873B6E710BD00A00850A4450020D9
:1016580051C3010076C3010012C3010010B5254C27
:10166800D4E8EF3F23F48032C4E8E12F0029F7D112
:10167800D80303D5204B186817F052F9D4E8EF3F88
:1016880023F00402C4E8E12F0029F7D1590705D552
:101698001A4817F045F91A4817F042F9D4E8EF3F0D
:1016A80023F01002C4E8E12F0029F7D1DA0605D5A6
:1016B800124817F035F9134817F032F9D4E8EF3F1C
:1016C80023F48072C4E8E12F0029F7D1DB050FD598
:1016D800094C206800F5A07017F022F9206800F581
:1016E800A27017F01DF9BDE81040054817F018B9A9
:1016F80010BD00BFF42E002020010020007108500A
:1017080000A0085004A0085038B50546174CFFF74C
:10171800A5FF2168164817F011F9A800C0B200F11A
:10172800A040216800F50A2017F008F9002D0CBF29
:101738000222042201230F4D9340D5E8EF2F1A43CC
:10174800C5E8E12F0029F8D10B4B2168186817F07C
:10175800F5F8D5E8EF3F43F48033C5E8E23F002AC7
:10176800F7D12068BDE838400BF054BEF82E0020B1
:1017780000710850F42E00202001002070B50446A6
:10178800164608461D46FFF7C3FD0F2C08BF022268
:101798000E4BC3F8004508BFC3F81028FFF7E4FE56
:1017A80031462046FFF7C8FE35B1084AD2F8003462
:1017B80043F00103C2F80034054B1B7823B1BDE8A0
:1017C80070400020FFF7A0BF70BD00BF00A0085008
:1017D800A445002010B50024094B0A481C7017F0D6
:1017E8002BFC084817F02FFC074B1C70074B186898
:1017F8000BF03EFEFFF732FFBDE81040FFF788BD53
:10180800A345002020010020A4450020F82E002038
:10181800F8B51F4604460E461546FFF779FD3946CA
:10182800FFF764FE062C1E4B12D8042C12D8D3F8EE
:10183800002442F00102C3F800240022C3F81C224D
:10184800D3F81C228022C3F88824C3F8004515E089
:101858000F2CECD1D3F800240F2C42F00102C3F86E
:1018680000244FF00002C3F81C22D3F81C224FF0CA
:101878008002C3F88824C3F800450DD03046FFF72E
:1018880073FE002229462046FFF756FE054B1A60D4
:101898000122034B1A60F8BD0222C3F81028EDE7B5
:1018A80000A00850002F00202DE9F04104462548EB
:1018B8000F4690461E46FFF72BFD0F2CC0F800453B
:1018C80009D10223C0F81038D0F8003443F02103BE
:1018D800C0F800340AE0631F012BF5D8D0F8005493
:1018E80045F4002545F00905C0F80054164B154D80
:1018F8002046C5F8D03E4146FFF766FD0022204647
:101908003946FFF719FE114B114C1A604FF400636A
:10191800C5F8883423787BB10120FFF7F5FE2378DA
:1019280053B101220B4B1A604EB1BDE8F0410023C0
:10193800094A0A480DF032BC01236B60F4E7BDE8A0
:10194800F08100BF00A00850A6450020FC2E002012
:10195800A445002000700850B4C4040060000020B2
:1019680070B50D4E3478012C15D9651EEDB2593578
:10197800354418F097FBB0FBF4F202FB1400304436
:1019880015F8013D90F85820013C2A7080F858302D
:10199800E3B2012BEDD170BD300100200A4A92F864
:1019A800513011780133B3FBF1F001FB103382F8A9
:1019B8005130136D23F07F4323F0FF03B3F5803FCD
:1019C80001D1FFF7CDBF704730010020B0F5A07FEF
:1019D80070B50C4677D10978CB1E042B6ED8DFE89A
:1019E80003F003226D2F490001253D4A3D4E2B4649
:1019F800127894F9041060783570FFF7BFFE3378D9
:101A08007BB1394B1D606279A1790020354B187084
:101A1800334803780133DBB28B4298BF1A46027011
:101A280070BD324BEEE701222E4B2D491A70097812
:101A3800227900236078FFF737FF22796179E4E79C
:101A48000122284B1A702A4B93F85200591C03F1B3
:101A58005802012818BF0A4693F851100320525C17
:101A6800002394F90410FFF789FEFFF797FF002180
:101A78000A46CAE701221D4B1A61D3F82022002A20
:101A8800FBD00022C3F82022D3F82012C3F800228A
:101A9800D3F80012C3F81C22D3F81C32144B93F865
:101AA8005200591C03F15802012818BF0A4693F83E
:101AB80051306078D15CFFF73FFDD6E70D48BDE8AF
:101AC800704014F0BAB8B0F5A87FA9D10B78072BED
:101AD8004FF001030CBF054A034A1360A0E700BF9B
:101AE800A5450020A44500200070085000A008501B
:101AF8003001002098C301002DE9F743037804461C
:101B0800072B16D8DFE813F008001D0025002C006D
:101B180031003400B400E4004279012390F9041044
:101B28004078FFF72BFE8E4B1A7801233AB18D4A85
:101B3800136001228C4B1A7003B0BDE8F0838B4A06
:101B4800F6E74379827990F904104078FFF760FE50
:101B5800EFE78368027941794078FFF7A5FEE8E767
:101B680081684079FFF706FCE3E781680079F9E7C7
:101B7800002246787E4B90F90480877940791A6074
:101B8800A568FFF7C5FB01463046FFF7AFFC0F2EEF
:101B980008BF0223754C4046C4F8006508BFC4F866
:101BA8001038D4F8003443F4002343F00103C4F898
:101BB8000034FFF7D9FC304600263946FFF7BCFC55
:101BC800C4F81C62D4F81C3280236A4AC4F88834EA
:101BD800694B12881B5CC5F1640453435C43B4FB36
:101BE800F5F4664D1C44284617F026FA3046FFF7F0
:101BF8008BFD2B682146D3F800224FF0FF32C3F843
:101C080000622846C3F808230CF086FD022302462A
:101C180001212846009617F032FAEFF311862023A7
:101C280083F31288BFF36F8F01224E4B544C1A6016
:101C380020680BF01DFCFFF711FD2868216800F5EE
:101C4800A27016F07BFE2168484816F077FE4D4BCF
:101C5800D3E8EF1F41F48071C3E8E21F002AF7D1EF
:101C680020680BF0D7FB86F31188BFF36F8F60E70E
:101C78000025424CC6880789FFF74AFB424B20469D
:101C880083F8515017F0D8F9236806F12801D3F8E2
:101C980000224FF0FF32C3F800522046C3F8082351
:101CA8000CF03AFD012302462946204617F0CFF9E9
:101CB800B91920460CF030FD012302460093204656
:101CC8001023042117F0DBF9204617F0AFF930E7AD
:101CD8004FF00008294D2C4E284686F8518017F001
:101CE800ABF92B68E188D3F800224FF0FF3227893F
:101CF80028460F44C3F800822831C3F808230CF0A3
:101D08000BFD012302464146284617F0A0F9394643
:101D180028460CF001FD4FF001090246102304216A
:101D28002846CDF8009017F0AAF996F8521006EB5D
:101D3800090306F15802494518BF1A4696F851108A
:101D4800074F525C6078637994F9041087F8009023
:101D5800FFF75EFDFFF722FE284687F80080B4E70C
:101D6800A445002000700850A245002000A008509B
:101D7800002F0020A04500202E3E02002001002058
:101D8800F82E0020F42E002030010020064B1B788E
:101D980043B100F0FB00012802D1044B18707047D2
:101DA800FFF718BD704700BFA2450020A3450020DB
:101DB800084B094AD3F8003503F00F030F2B14BF63
:101DC8004FF480737F23C0E90023044B1B688360B2
:101DD800704700BF00A00850A6450020FC2E002038
:101DE80010B5144A04461368013313600278012AB7
:101DF80008D181688B4205D1FFF78AFAC368BDE82C
:101E0800104018470C49097819B1BDE81040FFF790
:101E1800E1BC052A06D1E26893420AD1FFF7DAFC51
:101E28002369ECE7012A01D0072A02D10122034BDA
:101E38009A6010BD002F0020A345002000A0085084
:101E480038B51F4B0546D3F88824110516D5D3F8A5
:101E58002C229AB10022C3F82C221A4AD3F82C3229
:101E6800136801331360826842B193420CBF0022A9
:101E780040F63542002314480DF090F9104CD4F880
:101E880088341A060AD5D4F81C323BB100232846F8
:101E9800C4F81C32D4F81C32FFF7A2FFD4F88834F7
:101EA8005B060CD5D4F818324BB10023C4F81832AD
:101EB8002846D4F81832BDE83840FFF791BF38BD3E
:101EC80000A00850FC2E00206000002030B5044619
:101ED80087B01A4816F046FD4FF40073184A03A954
:101EE800CDE903230546174A1748059417F08AF8E1
:101EF800014610B1154813F0A0FE002206218520E6
:101F080015F012FE00230621114A00938A20234669
:101F180015F012FE8A2007F0CFFE294628460D4A02
:101F280016F0EBFC30B10C4813F087FE6FF00D0093
:101F380007B030BD094B0C341C60F9E700A008500D
:101F480040420F00D519000020010020B2C3010053
:101F5800491E0000F82E0020D3C30100F02E0020F7
:101F68000048704730010020012910B50C4603D104
:101F780014F0DEFD204610BD022906D91268064974
:101F880014F089FD6FF01500F5E702D15268034996
:101F9800F6E70020EFE700BFF5C301000FC401001A
:101FA800012910B50C4603D114F0C2FD204610BD1E
:101FB800022906D91268064914F06DFD6FF0150064
:101FC800F5E702D152680349F6E70020EFE700BFC2
:101FD80025C401000FC40100012910B50C4603D126
:101FE80014F0A6FD204610BD022906D9126806493C
:101FF80014F051FD6FF01500F5E702D1526803495E
:10200800F6E70020EFE700BF25C4010040C4010047
:10201800012938B505460C4603D114F089FD204640
:1020280038BD022906D912680C4914F034FD6FF046
:102038001500F5E7506818F031F85028024604D921
:102048002846074914F027FDF1E7064B0649D870E2
:10205800284614F004FD0020E2E700BFF5C30100A4
:1020680057C40100D801002079C40100012938B5FE
:1020780005460C4603D114F05BFD204638BD022905
:1020880006D912680C4914F006FD6FF01500F5E743
:10209800506818F003F85028024604D92846074922
:1020A80014F0F9FCF1E7064B06491871284614F0BC
:1020B800D6FC0020E2E700BFF5C3010057C40100C9
:1020C800D801002093C40100012938B505460C4603
:1020D80003D114F02DFD204638BD022906D9126817
:1020E8000C4914F0D8FC6FF01500F5E7506817F0AC
:1020F800D5FF6328024604D92846074914F0CBFCCB
:10210800F1E7064B06499860284614F0A8FC002021
:10211800E2E700BFF5C30100ABC40100D80100200D
:10212800D3C401000F2208B5034B04495A70044A6E
:1021380014F095FC002008BDD80100200CC5010052
:10214800EAC40100062208B5034B04495A70044A40
:1021580014F085FC002008BDD80100200CC5010042
:102168001BC50100052208B5034B04495A70044AEF
:1021780014F075FC002008BDD80100200CC5010032
:1021880038C50100042208B5034B04495A70044AB3
:1021980014F065FC002008BDD80100200CC5010022
:1021A80055C50100032208B5034B04495A70044A77
:1021B80014F055FC002008BDD80100200CC5010012
:1021C8006EC501000A2208B5034B04495A70044A37
:1021D80014F045FC002008BDD80100200CC5010002
:1021E80087C50100092208B5034B04495A70044AFF
:1021F80014F035FC002008BDD80100200CC50100F2
:10220800A7C50100012208B5034B04495A70044AC6
:1022180014F025FC002008BDD80100200CC50100E1
:10222800C7C5010010B50024034B044A04495C707B
:1022380014F015FC204610BDD8010020E0C50100AF
:102248000CC50100D222034B03499A706FF02D028E
:1022580014F005BCD8010020F9C50100D822034BB1
:1022680003499A706FF0270214F0F9BBD8010020D7
:10227800F9C50100E422034B03499A706FF01B0271
:1022880014F0EDBBD8010020F9C50100EA22034B88
:1022980003499A706FF0150214F0E1BBD8010020D1
:1022A800F9C50100EC22034B03499A706FF0130241
:1022B80014F0D5BBD8010020F9C50100EE22034B6C
:1022C80003499A706FF0110214F0C9BBD8010020BD
:1022D800F9C50100F022034B03499A706FF00F0211
:1022E80014F0BDBBD8010020F9C50100F222034B50
:1022F80003499A706FF00D0214F0B1BBD8010020A9
:10230800F9C50100F422034B03499A706FF00B02E0
:1023180014F0A5BBD8010020F9C50100F622034B33
:1023280003499A706FF0090214F099BBD801002094
:10233800F9C50100F722034B03499A706FF00802B0
:1023480014F08DBBD8010020F9C50100F822034B19
:1023580003499A706FF0070214F081BBD80100207E
:10236800F9C50100F922034B03499A706FF0060280
:1023780014F075BBD8010020F9C50100FA22034BFF
:1023880003499A706FF0050214F069BBD801002068
:10239800F9C50100FB22034B03499A706FF0040250
:1023A80014F05DBBD8010020F9C50100FC22034BE5
:1023B80003499A706FF0030214F051BBD801002052
:1023C800F9C50100FD22034B03499A706FF0020220
:1023D80014F045BBD8010020F9C50100FE22034BCB
:1023E80003499A706FF0010214F039BBD80100203C
:1023F800F9C50100FF22034B03499A704FF0FF32E1
:1024080014F02DBBD8010020F9C501000022024BB1
:1024180002499A7014F023BBD8010020F9C50100C5
:102428000122024B02499A7014F019BBD80100200E
:10243800F9C501000222024B02499A7014F00FBB41
:10244800D8010020F9C501000322024B02499A7005
:1024580014F005BBD8010020F9C501000422024B85
:1024680002499A7014F0FBBAD8010020F9C501009E
:102478000522024B02499A7014F0F1BAD8010020E3
:10248800F9C501000622024B02499A7014F0E7BA16
:10249800D8010020F9C501000722024B02499A70B1
:1024A80014F0DDBAD8010020F9C501000822024B5A
:1024B80002499A7014F0D3BAD8010020F9C5010076
:1024C800022208B5034B04491A70044A14F0C7FAEB
:1024D800002008BDD801002026C601000CC6010056
:1024E800012208B5034B04491A70044A14F0B7FADC
:1024F800002008BDD801002026C6010040C6010002
:1025080010B50024034B044A04491C7014F0A7FAC0
:10251800204610BDD80100205AC6010026C6010079
:1025280037B5264D2649044614F099FA6A780F2AD9
:102538003CD8DFE802F02D2F3B313335373B3B08E1
:102548002B3B3B3B3B391F4A1F49204614F087FA77
:1025580095F9022020461D4914F081FA2A78012AAB
:1025680026D0022A26D03ABB194A1A49204614F026
:1025780076FAEB6820460193AB68174900932B79EC
:10258800EA7814F06CFA002003B030BD134ADBE798
:10259800134AD9E7134AD7E7134AD5E7134AD3E7CB
:1025A800134AD1E7134ACFE7134ACDE71349CCE7DB
:1025B800134ADAE7134AD8E71349D7E7D8010020C6
:1025C80072C60100A7C501000CC50100F9C50100CC
:1025D8005AC6010026C60100C8C6010087C5010009
:1025E800E0C50100C7C501006EC5010055C5010061
:1025F80038C501001BC50100EAC401007FC60100FF
:1026080040C601000CC60100A6C6010008B5044B6F
:102618001878FFF7BBFB0020024B187008BD00BFFD
:10262800042F0020A647002010B5002104461222DE
:102638000D4817F02BFD04230B4A02F8023C0B4B04
:10264800901E5A784270DA7802711A799B68427142
:102658008360FFF751FA0122054B204605491A709D
:1026680014F0FDF9002010BD062F0020D80100202D
:10267800A647002023C7010010B5122204460021F6
:102688000D4817F003FD03230B4A02F8023C0B4BDD
:10269800901E5A78996842701A795B8881608380A5
:1026A8008271FFF729FA0122054B204605491A7065
:1026B80014F0D5F9002010BD062F0020D801002005
:1026C800A64700202DC701000129F8B505460C468C
:1026D800164603D114F02CFA2046F8BD032906D07B
:1026E80012681E4914F0D7F96FF01500F5E7506825
:1026F80017F0D4FC044687B2B06817F0CFFC86B256
:102708004F2E06D8502332461549284614F0C3F9EF
:10271800EAE7132F03D814231249A2B2F5E7124CA3
:102728000021122211482782668217F0AFFC062387
:102738000E4A02F8023C6378901E4370A378C78063
:1027480003710681FFF7D8F90122094B2846094988
:102758001A7014F084F90020BFE700BFF5C3010028
:1027680037C701006FC70100D8010020062F0020DD
:10277800A6470020AEC7010001292DE9F041054612
:102788000C46164604D114F0D3F92046BDE8F08172
:10279800032906D01268224914F07DF96FF015005C
:1027A800F4E7506817F07AFC87B2B06817F076FC47
:1027B800132F1FFA80F806D814233A4619492846D9
:1027C80014F069F9EAE7B8F14F0F03D85023164916
:1027D80082B2F4E7154E164C337823B12078FFF710
:1027E800D5FA0023337000211222124817F04EFC4C
:1027F80007231048E78000F8023D0F4BA4F8088033
:102808005A7862709A781B7822716371FFF774F9AD
:10281800012328460949337014F021F90020B5E74F
:10282800F5C301006FC7010037C70100A6470020A4
:10283800042F0020062F0020D8010020A4C7010083
:10284800014813F0FAB900BFC8C70100014813F0E6
:10285800F4B900BFE7C7010001292DE9F041074697
:102868000C46154604D114F063F92046BDE8F08102
:102878004C1EE4B2502C15D92246174914F00BF916
:102888006FF01500F2E758F8040F17F007FC50280E
:10289800034606F1010214D9324638460F4914F0AE
:1028A800FAF8EDE790460026F3B29C42EBD8FFF722
:1028B80057FB002706460470FBB29C4203D8002051
:1028C800D4E71646F0E755F8040F17F0E7FB013791
:1028D80006F8010FF0E700BF11C8010043C8010066
:1028E80038B504460025FFF73BFB044980F85250F1
:1028F800204614F0B4F8284638BD00BF9BC8010034
:1029080070B50446FFF72CFB064602780D492046B1
:1029180014F0A5F8204672780B4914F0A0F80125A8
:102928003378AB4205D82046084914F098F80020BF
:1029380070BD731920465A780549013514F08FF88F
:10294800EDB2EDE7C8C80100E5C80100680B020058
:10295800FBC80100F8B50F4605461646FFF700FB11
:1029680001239F42044680F8523003D9706817F05B
:1029780095FB6065214604F1580011F8012B17F00A
:102988005FFB606D17F094FBFEF7EAFF2846626D67
:10299800024914F064F80020F8BD00BF00C9010026
:1029A8007FB5002301A8CDE901330393FFF700FAAF
:1029B8001A4B5C6914B1039EA64204D9184813F057
:1029C8003CF904B070BDA01BFDF7ECFF054620469E
:1029D800FDF7E8FF01462846FEF7F0F81149FEF733
:1029E80039F80546104813F028F931460F4813F016
:1029F80024F921460E4813F020F92846FDF7C4FEB5
:102A080002460B460B4813F018F928460A49FEF708
:102A1800D3F90028D5D00948D1E700BFD801002054
:102A280023C901000000C842E00402003CC90100BB
:102A38005CC901007DC901000000204191C9010065
:102A480030B50446002585B001A8CDE901550395A8
:102A5800FFF7AEF92046084914F001F8DDE9011244
:102A6800204614F026F82046039A044913F0F7FF8D
:102A7800284605B030BD00BFB6C90100C9C901006C
:102A88000148FFF723BA00BF042F0020012910B521
:102A98000C4603D114F04CF8204610BD022987BF1C
:102AA800126804495268044913F0F5FF6FF01500E5
:102AB800F3E700BFF5C301000FC4010013B50C4BC9
:102AC80004465B780F2B11D10B390F290ED91A2325
:102AD800084A009308490B2313F0C1FF0B22204634
:102AE800064902B0BDE8104013F0B9BF02B010BDEE
:102AF800D8010020EAC40100E0C9010016CA01009B
:102B080070B5104E044633780F4D23B12878FFF77F
:102B18003DF9002333700D4E2046F178FFF7CEFFC4
:102B280014220021084817F0B1FA737806486B7030
:102B38007388AB80FEF7E0FF2046054913F08FFF4E
:102B4800002070BDA6470020042F0020D8010020D7
:102B580029CA01002DE9F041214C05462378884611
:102B680017462BB11F4B1878FFF710F90023237075
:102B78001D4E2846F178FFF7A1FFB8F1020F08D9DA
:102B880028463A68194913F086FF6FF01500BDE82A
:102B9800F08112220021164817F078FA0123144A0E
:102BA800B8F1020F02F8023C7378A2F1020402F8AD
:102BB800013CB3789370F37813713378D37005D1EF
:102BC800786817F06BFA0B4BA060E3600548FEF7D6
:102BD80093FF2846084913F042FF0020D7E700BFBB
:102BE800A6470020042F0020D801002025C401009A
:102BF800062F0020492800003FCA010001292DE9BD
:102C0800F04107460C46164604D113F091FF2046C2
:102C1800BDE8F081032906D912681F4913F03BFF6C
:102C28006FF01500F4E7506817F038FA5A28804614
:102C380004D93846194913F02EFFF1E7184D14222C
:102C48000021284617F022FA032C22D1B06817F089
:102C580025FA064608B1134B2B61134C3846E17828
:102C6800C4F80C80FFF72AFF05232B7063780C4803
:102C78006B70A3782B7123786B71E378AB71E36881
:102C8800C5E90236FEF738FF0122084B00201A700A
:102C9800BEE70026E1E700BF25C401005FCA0100C6
:102CA800042F002055280000D8010020A647002046
:102CB8002DE9F041264D04462B78884617462BB15E
:102CC800244B1878FFF762F800232B70B8F1020F35
:102CD80008D920463A68204913F0DDFE6FF0150048
:102CE800BDE8F0811D4E2046F178FFF7E7FE12227D
:102CF80000211B4817F0CAF90223194A02F8023CBE
:102D08007378951E5A1F012A6B7008D81549164A00
:102D18002046052B18BF0A46144913F0AEFEF37877
:102D2800B8F1020F6B7133782B710CD1786817F0FA
:102D3800B5F90F4B7061A860EB6020B920460D49CA
:102D480013F0A9FECAE70348FEF7D6FE0020C7E73E
:102D5800A6470020042F0020A1CA0100D8010020A6
:102D6800062F002093CA010085CA0100B9CA0100D4
:102D7800A929000096CB010008B50E4B1B6893F8F3
:102D8800FD202AB10C4A012113F04EFE002008BD97
:102D980093F8FC200AB1094AF5E793F8222132B1E9
:102DA800012193F82331064A13F03EFEEEE7012095
:102DB800EDE700BFF001002034D7010040D7010043
:102DC8004CD70100134673B5002406460A225868FA
:102DD80001A9019411F068FA0A28054608D90121C9
:102DE80030460A4A13F020FE6FF0070002B070BDAB
:102DF8003046FFF7C1FF0028F6D0054B1A221868A5
:102E08002946A53017F042F92046EFE762D70100BE
:102E1800F0010020134673B5002406460A225868BC
:102E280001A9019411F040FA0628054608D90121A4
:102E380030460A4A13F0F8FD6FF0070002B070BD83
:102E48003046FFF799FF0028F6D0054B0422186892
:102E58002946BF3017F01AF92046EFE780D701005E
:102E6800F001002037B504467C4B02211D687C4ADE
:102E780013F0DAFD022120467A4A13F0D5FD02212B
:102E8800204695F8D330784A13F0CEFD022120462B
:102E980095F8D430754A13F0C7FD0221204695F8FD
:102EA800D630734A13F0C0FD95F9D9300221204677
:102EB800704A13F0B9FD95F9DA30052B40F0C78058
:102EC800022120466C4A13F0AFFD2046D5F80C319C
:102ED80002216A4A13F0A8FDD5F8DC302046022109
:102EE800674A03F0010313F09FFDD5F8DC30204654
:102EF8000221644AC3F3400313F096FD20460023E1
:102F08000221614A13F090FDD5F8DC3020460221F9
:102F18005E4AC3F3001313F087FDD5F8DC30204672
:102F280002215B4AC3F3C00313F07EFD2046D5F8A7
:102F3800F2300221574A13F077FD2046B5F8F630F3
:102F48000221554A13F070FD2046D5F8F8300221C9
:102F5800524A13F069FD204695F800310221504A83
:102F680013F062FD204695F8013102214D4A13F015
:102F78005BFD20462B7C02214B4A13F055FD204671
:102F8800D5F8E4300221494A13F04EFD204695F861
:102F9800FC300221464A13F047FD204695F8FD30E3
:102FA8000221444A13F040FD204695F914310221CC
:102FB800414A13F039FD204695F8153102213F4A60
:102FC80013F032FD204695F8163102213C4A13F0E1
:102FD8002BFD2046B5F8173102213A4A13F024FD9B
:102FE8002046B5F819310221374A13F01DFD204655
:102FF80095F810310221354A13F016FD2046D5F810
:103008001E310221324A13F00FFD95F81D2195F863
:103018001C312046009202212E4A13F005FD20465D
:1030280095F81B3102212C4A13F0FEFC204695F836
:1030380012310221294A13F0F7FC2046022195F8A3
:103048001331274A13F0F0FC002003B030BD0221F1
:103058002046244A13F0E8FC37E700BFF0010020BF
:103068009ED70100E0040200CFD70100E6D7010097
:10307800F7D701000DD801001ED8010043D8010080
:1030880054D8010069D801007ED8010094D8010005
:10309800A9D80100BED80100CFD80100E0D80100AE
:1030A800EFD80100FCD8010008D9010015D90100AA
:1030B80020D9010029D9010032D9010045D90100E0
:1030C80057D9010068D9010080D9010099D90100B8
:1030D800B4D90100C4D90100D7D90100EFD9010042
:1030E800FDD9010031D80100134673B50024054607
:1030F8000A22586801A9019411F0D6F803460A3348
:10310800DBB2142B46B208D901212846084A13F02D
:103118008BFC6FF0070002B070BD2846FFF72CFE4D
:103128000028F6D0034B20461B6883F81461F2E7A9
:103138000CDA0100F0010020134673B5002406469E
:103148000A22586801A9019411F0AEF885B2B5F5C4
:10315800167F08D901213046084A13F065FC6FF044
:10316800070002B070BD3046FFF706FE0028F6D013
:10317800034B20461B68A3F81951F2E73CDA01001B
:10318800F0010020134673B5002406460A22586849
:1031980001A9019411F088F885B2B5F5804F08D3DC
:1031A80001213046084A13F03FFC6FF0070002B0D7
:1031B80070BD3046FFF7E0FD0028F6D0034B2046EF
:1031C8001B68A3F81751F2E76FDA0100F00100203D
:1031D800134673B5002406460A22586801A90194CB
:1031E80011F062F8C5B21F2D08D901213046094AED
:1031F80013F01AFC6FF0070002B070BD3046FFF7FD
:10320800BBFD0028F6D0044B20461B6883F81651F6
:10321800F2E700BFA8DA0100F0010020134673B5F9
:10322800002406460A22586801A9019411F03CF8C6
:10323800C5B2042D08D901213046094A13F0F4FB20
:103248006FF0070002B070BD3046FFF795FD00280B
:10325800F6D0044B20461B6883F81551F2E700BFEF
:10326800D0DA0100F001002037B5134600220546E8
:10327800019258680A2201A911F016F81828044684
:103288000AD91E2808D001212846094A13F0CCFB88
:103298006FF0070003B030BD2846FFF76DFD00282A
:1032A800F6D0044B00201B68C3F8F840F2E700BFD3
:1032B800F8DA0100F0010020B3F1FF3F73B50D46C5
:1032C800064611461C4603F0800244D052B3EA0772
:1032D80003F07F0313D502290AD1A3F10802072AB4
:1032E80039D91E4A012113F09FFB002002B070BD9E
:1032F8000129FAD114F0780F2DD0194AF3E7022DDD
:1033080003D1092B27DD174AECE7042D03D1022B43
:1033180021DD154AE6E700930121144B144A13F006
:1033280083FBE2E71DB10121124A13F07DFB182C43
:1033380009DC002C04DC2346012130460E4AD2E782
:103348000E4BE34005E0A4F12402132AF3D80C4BFA
:10335800D340DB07EFD50120C8E700BF12DB01002F
:103368002BDB010044DB01005FDB01003E3E020075
:103378007FDB0100A0DB0100C3DB0100461A04016A
:1033880001100C00134673B5002406460A2258683B
:1033980001A9019410F088FF012805460CD90346BD
:1033A800012130460A4A13F03FFB304613F0C0FBB8
:1033B8006FF0070002B070BD3046FFF7DDFC002853
:1033C800F6D0044B20461B6883F81B51F2E700BF78
:1033D800E2DB0100F00100201346002273B5044629
:1033E800019258680A2201A910F05EFF1A4E05469C
:1033F800336893F812311A2B0FD1431E082B1AD9B0
:103408002B4601212046154A13F00EFB204613F0E7
:103418008FFB6FF0070002B070BD342B02D1431E42
:10342800032BECE76A2B02D1431E012BE7E7F22BB3
:103438000BD10128E4D12046FFF79EFC0028E8D0F4
:103448003368002083F81351E5E701212046044A38
:1034580013F0EAFADAE700BFF0010020E2DB01002E
:10346800F5DB010037B5134600220546019258687E
:103478000A2201A910F018FF1A28044612D034288D
:1034880010D06A280ED0F2280CD003460121284615
:103498000A4A13F0C9FA284613F04AFB6FF00700EE
:1034A80003B030BD2846FFF767FC0028F6D0044B70
:1034B80000201B6883F81241F2E700BFE2DB01003D
:1034C800F00100201346002273B5044601925868A3
:1034D8000A2201A910F0E8FE054660B90346012159
:1034E8002046244A13F0A0FA204613F021FB6FF07F
:1034F800070002B070BD204E326892F8D330062B18
:1035080005D11E4A0121204613F08EFAEFE723B9B0
:10351800B0F57A6F23D91A4AF4E7052B1FD192F830
:1035280012311A2B04D1B0F5AF7F18D3154AE9E749
:10353800342B04D1B0F5487F11D3134AE2E76A2B44
:1035480004D1B0F5E16F0AD3104ADBE7F22B04D1BE
:10355800B0F57A6F03D30E4AD4E70E4AD2E7204675
:10356800FFF70AFC0028C2D033680020A3F8F65001
:10357800BFE700BFE2DB0100F001002006DC01002C
:103588001FDC01004FDC01007BDC0100A7DC01002F
:10359800D4DC010001DD0100134673B500240646A2
:1035A8000A22586801A9019410F07EFE0D4B0546C9
:1035B80098420CD90346012130460B4A13F034FADD
:1035C800304613F0B5FA6FF0070002B070BD304610
:1035D800FFF7D2FB0028F6D0044B20461B68C3F83F
:1035E8000C51F2E7400D0300E2DB0100F00100207E
:1035F80037B5134600220546019258680A2201A9E8
:1036080010F052FE022804460CD903460121284630
:10361800144A13F009FA284613F08AFA6FF00700E3
:1036280003B030BD2846FFF7A7FB0028F6D00E4BA5
:103638001B6893F8D32042B9022C0ED123460121EE
:1036480028460A4A13F0F0F9E8E7022C05D00121D0
:103658002846074A13F0E8F9E0E7002083F8D64047
:10366800DEE700BFE2DB0100F001002014DD01000D
:1036780037DD0100134673B5002406460A22586850
:1036880001A9019410F010FE012805460CD9034643
:10369800012130460A4A13F0C7F9304613F048FAB8
:1036A8006FF0070002B070BD3046FFF765FB0028D9
:1036B800F6D0044B20461B6883F8D450F2E700BFCD
:1036C800E2DB0100F0010020134673B50024064632
:1036D8000A22586801A9019410F0E6FD052805465C
:1036E8000CD90346012130460A4A13F09DF93046A9
:1036F80013F01EFA6FF0070002B070BD3046FFF7F6
:103708003BFB0028F6D0044B20461B6883F8D350B7
:10371800F2E700BFE2DB0100F0010020134637B5F5
:10372800002405460A22586801A9019410F0BCFD3E
:10373800022803460BD901212846084A13F074F9D8
:10374800284613F0F5F96FF0070003B030BD044ABE
:10375800126882F801012046F7E700BF73DD010017
:10376800F0010020134637B5002405460A225868A0
:1037780001A9019410F098FD022803460BD90121F4
:103788002846084A13F050F9284613F0D1F96FF08B
:10379800070003B030BD044A126882F800012046D1
:1037A800F7E700BF8EDD0100F001002037B51346B2
:1037B80000220546019258680A2201A910F074FDFA
:1037C800012804460BD90346012128460E4A13F066
:1037D8002BF9284613F0ACF96FF007000EE02846E5
:1037E800FFF7CAFA0028F7D0084B1B68D3F8DC208B
:1037F80034B142F008020020C3F8DC2003B030BD29
:1038080022F00802F7E700BFAADD0100F00100205E
:1038180037B5134600220546019258680A2201A9C5
:1038280010F042FD012804460BD903460121284621
:103838000E4A13F0F9F8284613F07AF96FF00700EA
:103848000EE02846FFF798FA0028F7D0084B1B68C7
:10385800D3F8DC2034B142F010020020C3F8DC2099
:1038680003B030BD22F01002F7E700BFD5DD01003C
:10387800F0010020134637B5002405460A2258688F
:1038880001A9019410F010FD012803460BD9284620
:103898000121084A13F0C8F8284613F049F96FF0D7
:1038A800070003B030BD2846FFF766FA0028F6D0B7
:1038B8002046F6E700DE010037B51346002205462C
:1038C800019258680A2201A910F0EEFC012804466A
:1038D8000BD90346012128460E4A13F0A5F82846BD
:1038E80013F026F96FF007000EE02846FFF744FAB8
:1038F8000028F7D0084B1B68D3F8DC2034B142F01D
:1039080002020020C3F8DC2003B030BD22F002021E
:10391800F7E700BF2EDE0100F001002037B513469F
:1039280000220546019258680A2201A910F0BCFC41
:10393800012804460BD90346012128460E4A13F0F4
:1039480073F8284613F0F4F86FF007000EE02846E5
:10395800FFF712FA0028F7D0084B1B68D3F8DC20D1
:1039680034B142F001020020C3F8DC2003B030BDBE
:1039780022F00102F7E700BF59DE0100F001002044
:10398800F0B51546F9B002AF4FF4EC7200210446C9
:10399800384616F07BFB6E683046FDF79DFA022824
:1039A80005D003211B4A204613F03EF82DE033785A
:1039B800A3F14102192A1BD87278413A192A1CD856
:1039C800154E2046326882F81C316B685B7882F8A5
:1039D8001D31FFF7D1F9C0B133683946B3F81C215E
:1039E80058683A800DF020FF88B101210B4ADAE7C8
:1039F800302B02D17278302AE2D0AA68032152789B
:103A080020460092064A13F00FF86FF0070079B0CD
:103A1800F0BD00BF84DE0100F0010020D6DE010009
:103A2800BDDE010037B513460022054601925868ED
:103A38000A2201A910F0C4FB3F28044620D014DC58
:103A4800F0B1C31E1C2B03D8154BC340DB0717D49A
:103A5800284623460121134A12F0E6FF284613F0B0
:103A680067F86FF0070003B030BD40F2FF139842CB
:103A780006D0B0F5007F0EDA20F080037F2BE7D167
:103A88002846FFF779F90028EBD0074B00201B6880
:103A9800C3F81E41E7E740F2FF339842EFE700BF63
:103AA80088800080E2DB0100F0010020134673B536
:103AB800002506460A22586801A9019510F080FBE6
:103AC800431C044600DB60B93046234601210A4AFC
:103AD80012F0AAFF304613F02BF86FF0070002B07F
:103AE80070BD3046FFF748F90028F6D0034B28464A
:103AF8001B68C3F8F240F2E7E2DB0100F0010020A6
:103B08001346F7B5002406460A22586801A901940D
:103B180010F056FB05463046FFF72EF980B10D4FE1
:103B28002B463968304691F8D52091F8D310FFF725
:103B3800C3FB48B92B4601213046074A12F074FFEF
:103B48006FF0070003B0F0BD3B68204683F8DA50F9
:103B5800F8E700BFF0010020E2DB01001346F7B5EB
:103B6800002406460A22586801A9019410F028FB8F
:103B780005463046FFF700F988B10D4F30463968E1
:103B880045F0800391F8D52091F8D310FFF794FB06
:103B980048B92B4601213046064A12F045FF6FF01E
:103BA800070003B0F0BD3B68204683F8D950F8E71A
:103BB800F0010020E2DB01001FB5134600220129B5
:103BC8000446CDE9012203920AD80121164A12F0CF
:103BD8002BFF204612F0ACFF6FF0070004B010BDB9
:103BE80007225868029201A90A2210F05DFB0128F9
:103BF8000346039005DD012120460C4A12F014FF0C
:103C0800E7E70B4A1068082280F810310DEB020133
:103C1800406816F0E5F80028E0D001212046054A62
:103C280012F002FFD8E700BFF5DE010013DF010044
:103C3800F001002034DF010030B591B040220021AE
:103C48000446684616F022FA1E4B6A461B6893F82B
:103C5800E01058680EF09EFD054640B1204601214F
:103C6800194A12F0E1FE6FF0070011B030BD0221D1
:103C78002046164A12F0D8FE022120469DF9283027
:103C8800134A12F0D1FE02212046DDF82A30114AEB
:103C980012F0CAFE02212046DDF82E300E4A12F03C
:103CA800C3FE02212046DDF832300C4A12F0BCFE79
:103CB80020460221DDF83630094A12F0B5FE2846C2
:103CC800D3E700BFF001002056DF010079DF0100D3
:103CD8009EDF0100B1DF0100C9DF0100E1DF010063
:103CE800F9DF010038B50446FFF746F80B4D2B689D
:103CF80060B140F601125868A3F822210EF002FDC7
:103D080030B101212046064A12F08EFE6FF00700FE
:103D18004FF430622B68A3F8222138BDF00100204F
:103D280011E001001346002273B505460192586858
:103D38000A2201A910F0B8FA7F280446174E10D9B4
:103D480028460121164A12F06FFE284612F0F0FEAE
:103D58006FF007004FF430623368A3F8222102B0F5
:103D680070BD012810D040F601023368E4B2214644
:103D78005868A3F822210EF07BFC58B1012128468F
:103D8800084A12F051FEE3E72846FEF7F5FF00283F
:103D9800E9D1DDE733681C74DCE700BFF0010020DF
:103DA8002EE0010058E0010038B50446FEF7E4FFB4
:103DB8000B4D2B6860B140F201525868A3F82221DC
:103DC8000EF008FC30B101212046064A12F02CFE04
:103DD8006FF007004FF430622B68A3F8222138BD3A
:103DE800F001002075E0010038B50446FEF7C4FF75
:103DF8000B4D2B6860B140F601225868A3F82221C8
:103E08000EF0A6FB30B101212046064A12F00CFE46
:103E18006FF007004FF430622B68A3F8222138BDF9
:103E2800F001002089E0010038B50446FEF7A4FF40
:103E38000B4D2B6860B140F201725868A3F822213B
:103E48000EF03EFB30B101212046064A12F0ECFD8F
:103E58006FF007004FF430622B68A3F8222138BDB9
:103E6800F00100209EE001001346002273B50446CD
:103E7800019258680A2201A910F016FA012805468D
:103E8800154E0BD9034601212046144A12F0CCFDE9
:103E9800204612F04DFE6FF007000AE010D040F205
:103EA80001423368E9B25868A3F822210EF0BEFA3D
:103EB80060B94FF430623368A3F8222102B070BDB4
:103EC8002046FEF759FF0028E9D1E4E70121204602
:103ED800034A12F0A9FDDEE7F0010020E2DB010051
:103EE800B7E001001346002273B5054601925868F1
:103EF8000A2201A910F0D8F9012804460BD9034673
:103F080001212846164A12F08FFD284612F010FEAD
:103F18006FF007001FE010D0124EE1B2306890F940
:103F2800F83090F9142140680EF02CFA58B10121AC
:103F380028460D4A12F078FDEAE72846FEF71CFFEE
:103F48000028E9D1E4E7012C336806D140F20132B8
:103F58000020A3F8222102B070BD4FF43062F7E7C9
:103F6800E2DB0100F0010020CFE001002DE9F0477D
:103F780004461046002386B00A22406805A98DF839
:103F88001330059310F090F9022807460ED903461E
:103F9800012120464F4A12F047FD204612F0C8FD85
:103FA8006FF00704204606B0BDE8F087DFF82881E7
:103FB800D8F80030B3F817213AB90092474B484A6D
:103FC8000121204612F030FD0CE0022806D1B3F89A
:103FD80019311BB90093434A404BF1E72046FEF7DD
:103FE800CBFE40B96FF007044FF43062D8F80030C8
:103FF800A3F82221D6E7D8F80030B3F8170100EB70
:1040080040000DF07DF8D8F800500646B5F8173195
:1040180028B903EB43030093334A304BD0E74FF002
:1040280001090DF11302A5F82291039295F81621C2
:10403800F9B2029295F815210192B5F8192100926A
:10404800024668680EF034F950B120464946274ABE
:1040580012F0EAFC6FF0070430460DF057F8C3E79A
:104068009DF813505DBB02212046214A12F0DCFC6A
:104078004FF0300AD8F80030B3F81731B5EB131FFA
:1040880001D30024E8E74FF000090AFB05673A78F6
:10409800BB7801927A78022100922046154A09F1EC
:1040A800010912F0C1FCB9F1100F07F10307EED1B5
:1040B80002212046104A12F0B7FC0135DAE7012D3B
:1040C8004FF0020120460CBF0C4A0D4A12F0ACFC1E
:1040D800D7E700BFE2DB0100F0010020543E0200F8
:1040E800EBE001000DE1010030E1010062E10100B7
:1040F80085E10100B1E10100E0040200BFE1010037
:10410800EAE1010037B513460022044601925868D7
:104118000A2201A910F0C8F8012805460BD9034660
:1041280001212046104A12F07FFC204612F000FDC3
:104138006FF007000AE00BD00C4B1B68586883F837
:10414800FD5003F108010EF063F838B903B030BD33
:104158002046FEF711FE0028EED1E9E701212046AE
:10416800034A12F061FCE3E7E2DB0100F001002002
:104178001EE2010037B51346002204460192586832
:104188000A2201A910F090F8012805460CD9034627
:1041980001212046314A12F047FC204612F0C8FCA3
:1041A8006FF0070003B030BD4BD12046FEF7E4FDA9
:1041B8000028F5D02A4B1A6892F8D330052B32D84C
:1041C800DFE803F0030E152A2A2A92F8E83063B3D1
:1041D800D2F8E430234A0121204612F025FC10E0F1
:1041E80092F8E8300BB3D2F8E4301F4AF3E7D2F87C
:1041F800E430591E0D290AD8012120461B4A12F025
:1042080013FC1B4A0121204612F00EFCC8E792F865
:10421800E81051B1174ADEE792F8E8302BB1D2F82E
:10422800E430154AD7E7154AD5E7D2F8F8301E2BFF
:104238001FBF4FF06033C2F81930C2F81D3082F842
:104248002130074B1B68586883F8FC5003F10801BC
:104258000DF0B2FF0028A5D0094AD3E7E2DB010040
:10426800F001002035E2010068E2010097E2010058
:104278003CE30100BFE20100EFE201001EE30100A0
:1042880056E30100002313B5ADF8043090F814315B
:1042980004461BB1B0F81431ADF8043000214FF4D6
:1042A8008D72204615F0F2FE324BA11C1B6858682F
:1042B8000EF0A4FA002858D11E2284F8F0204FF0FE
:1042C800FF3284F8EA2084F8EB2084F8EC2084F8A4
:1042D800ED207822012384F8EE20052284F8CD30E1
:1042E80084F8DC3084F8E93084F8EF2084F8F6307C
:1042F800062284F80B310F2384F8D22084F8163173
:1043080002227B2384F8F82084F8F92084F8D4303A
:104318001A22032384F8040184F8050184F80601AD
:1043280084F8070184F8F10084F8F20084F8F300B7
:1043380084F8DD0084F8DE0084F8DF0084F8CE001D
:1043480084F80A2184F8170184F8180184F81901FF
:1043580084F8D50084F8D6309DF8043084F8D70066
:104368002BB1BDF80430A4F8143102B010BD024BD3
:104378001B88F8E7F001002057C601001346002209
:1043880073B50546019258680A2201A90FF08CFFFF
:10439800C2B2531E0D2B06460BD9902A4BD8732A4E
:1043A80023D8442A40D8272A2CD802F0FB03202BF4
:1043B8004AD1524C236893F8FD30002B56D0022185
:1043C80028464F4A12F030FB00222368586883F8C9
:1043D800FD2003F108010DF01BFF002846D0494AD3
:1043E8000121284612F020FB3AE04FF01133A2F1E8
:1043F8007401C9B2CB40D807DBD4413AD2B21C2AE7
:104408000CD927E04FF01133A2F12801C9B2CB40F3
:10441800D907CED43D2AF0D8213AD2B24FF0113381
:10442800D340DB0716D5C4E7A2F16003DBB2102B3B
:10443800E3D8354905E002F16B03DBB21C2BDCD86D
:10444800324921FA03F3D6E7202AE5D8A2F111036D
:104458000C2B09D933462E4A0121284612F0E4FADA
:104468006FF0070002B070BD2A4BD9E7236893F8B4
:10447800FC3083B102212846274A12F0D5FA0022DF
:104488002368586883F8FC2003F108010DF094FEB6
:1044980008B1224AA4E7206890F82231DBB190F8ED
:1044A8002331032B01D01E4AD6E7022128461D4A94
:1044B80012F0BAFA2068002190F9F83090F9142126
:1044C80040680DF05FFF08B1174A89E74FF4306381
:1044D8002068A0F822310830FFF7D4FE08B1134A4B
:1044E8007EE723685868C3F8E46003F108010DF01B
:1044F8001DFE0028B6D00E4A72E700BFF00100206A
:1045080089E30100A4E301001111010011555515BB
:104518006DE3010000002222B9E30100D4E30100A9
:10452800E9E301000BE401002BE401004AE4010087
:1045380065E4010010B50446FEF71EFC50B1074BB8
:1045480018680830FFF79EFE30B101212046044A62
:1045580012F06AFA6FF0070010BD00BFF0010020EA
:104568004AE4010038B533240C4D286843687BB908
:10457800013C07D141F2883109480FF0E5FD6FF0A1
:1045880007000AE0002140F6354015F059F8ECE73D
:104598000830FFF777FE0028F1D138BDF001002080
:1045A8007EE40100F0B593B004460122402003A93F
:1045B80000F050FF054648B101212046154A12F087
:1045C80033FA6FF00705284613B0F0BD039B01339B
:1045D80005D10121104A204612F026FAF3E70221FC
:1045E80020460E4A12F020FA0F22572003A900F0A5
:1045F80031FF2F4603AE56F8043B022100932046B4
:104608003B46074A013712F00FFA0F2FF3D1022168
:10461800024AE0E70DF20100A2F20100E004020004
:104628002EF2010037B504460122402001A900F00E
:1046380011FF054648B1012120460F4A12F0F4F94E
:104648006FF00705284603B030BD019B013305D143
:1046580001210A4A204612F0E7F9F3E7012201A9ED
:10466800562000F0F7FE0221054A2046019B12F071
:10467800DBF90221034AEDE70DF20100A2F2010085
:104688004AF20100E00402000D4B10B599420446BD
:104698000C4B0DD04A1C0DD071B90B4A022112F0F7
:1046A800C3F92046BDE810400221084A12F0BCB9FF
:1046B800074AF3E7074AF1E70121074AEFE700BF96
:1046C800FA50FA50622702006CF20100E00402007E
:1046D80084F201009FF20100D2F201002DE9F043BB
:1046E800012904460D461646ADF5177D07D80B4639
:1046F8000121614A12F098F96FF0070783E0002260
:10470800706811460FF0D0FDFF284FEA900805D8D1
:104718005A4A20F0030301212046EBE7A8F156038B
:104728000F2BF5D90422402056A900F093FE074626
:1047380028B1534A0121204612F076F9DCE74323D9
:1047480041224021009316A8422300F06DFC8146C7
:1047580001462046FFF798FF4A4B994504D0B9F126
:10476800FF3F01D0484AE5E7B8F14C0F0CD8A8F153
:1047780040030C2B0BD8DFE803F00D0A0A0A5D0A88
:104788000A0A220A220A4B00B8F1550F40D04346C4
:104798003E4AC0E7032D02D02B463D4ABBE7002224
:1047A800B06811460FF080FD02A90860402000F0B3
:1047B80075FC02212046374A12F036F923E0364BC1
:1047C8009B680BB9354AB5E7042D02D02B46344A0D
:1047D800A1E70022B06811460FF066FD00220290A2
:1047E8001146F0680FF060FD02AD80B2686028469F
:1047F80015F0CDFA08B92B4A9CE72946404600F047
:104808004DFC0028D5D038460DF5177DBDE8F0835E
:10481800032D07D0434601212046234A009512F074
:1048280003F969E70022B06811460FF03DFD02A9BF
:104838000860E3E7062D02D02B461C4A6BE70022EE
:10484800B06811460FF030FD002202901146F06862
:104858000FF02AFD00220390114630690FF024FD65
:1048680000220490114670690FF01EFD02AD0590FC
:1048780029464420C3E700BFF1F2010009F3010013
:104888000DF20100FA50FA5025F3010083F40100FB
:1048980043F3010099F40100783300207BF3010011
:1048A80093F30100CBF301001FF4010051F4010060
:1048B800F0B5022904461746ADF5057D08D00091EC
:1048C800562301211D4A12F0AFF86FF0070530E0BA
:1048D8000422402044A900F0BDFD054628B1184A2D
:1048E8000121204612F0A0F8EFE74323412240219E
:1048F800009304A8422300F097FB06460146204691
:10490800FFF7C2FE0F4B9E4203D0013601D00E4A7C
:10491800E6E70022786811460FF0C6FC03A9086094
:10492800562000F0BBFB20B902212046074A12F0AE
:104938007BF828460DF5057DF0BD00BFB6F40100F3
:104948000DF20100FA50FA5025F30100E8F40100D5
:104958002DE9F04317460022044688467868114638
:10496800ADF5057D0FF0A0FC0E28034600F15709B0
:1049780007D901212046244A12F056F86FF007059E
:104988003CE00422402044A900F064FD054628B11B
:104998001E4A0121204612F047F8EFE7432341223F
:1049A8004021009304A8422300F03EFB064601463E
:1049B8002046FFF769FE164B9E4203D0013601D010
:1049C800144AE6E7B8F1030F08D04B460121204608
:1049D800114ACDF8008012F027F8CFE70022B86816
:1049E80011460FF061FC03A90860484600F056FB29
:1049F80020B902212046094A12F016F828460DF57A
:104A0800057DBDE8F08300BF09F501000DF2010046
:104A1800FA50FA5025F301001FF4010021F50100B6
:104A280070B5ADF5027D02AE044680223146002005
:104A380000F010FD054650B1012120461E4A11F034
:104A4800F3FF6FF0070528460DF5027D70BD20467F
:104A580002211A4A11F0E8FF432341220093402122
:104A68004223304600F0E0FA01462046FFF70CFEEC
:104A7800D6F854610221F0074CBF114A114A20466A
:104A880011F0D2FFB1074CBF0F4A104A204602214D
:104A980011F0CAFF72074CBF0D4A0E4A2046022188
:104AA80011F0C2FF33074FF0020120464CBF0A4AFB
:104AB8000A4A11F0B9FFC6E70DF2010040F50100FE
:104AC80063F5010088F50100A9F50100D1F50100A1
:104AD800F4F501001CF601003FF6010062F6010042
:104AE80070B5ADF5067D06AD044680222946002046
:104AF80000F0B0FC064650B101212046A54A11F04D
:104B080093FF6FF0070630460DF5067D70BD432311
:104B18004122402100932846422300F085FA0146AD
:104B28002046FFF7B1FD6B6F022120469A4A11F02B
:104B38007BFF02212046994A11F076FF0221204688
:104B4800D5F88030964A11F06FFF02212046D5F83B
:104B58008430944A11F068FF02212046D5F8883045
:104B6800914A11F061FF02212046D5F88C308F4A16
:104B780011F05AFF02212046D5F890308C4A11F0E6
:104B880053FF02212046D5F894308A4A11F04CFF91
:104B980002212046D5F89830874A11F045FF0221B6
:104BA8002046D5F89C30854A11F03EFF0221204668
:104BB800D5F8A030824A11F037FF02212046D5F8F7
:104BC800A430804A11F030FF02212046D5F8A830E1
:104BD8007D4A11F029FF02212046D5F8AC307B4AE6
:104BE80011F022FF02212046D5F8B030784A11F0A2
:104BF8001BFF02212046D5F8B430764A11F014FF85
:104C0800D5F8B83002212046734A11F00DFF022171
:104C18002046624A11F008FF02212046D5F8C0302C
:104C28006E4A11F001FFD5F8C430022120466C4AC3
:104C380011F0FAFE02212046584A11F0F5FE022131
:104C48002046D5F8D030674A11F0EEFE0221204602
:104C5800D5F8D430644A11F0E7FE02212046D5F891
:104C6800D830624A11F0E0FED5F8DC300221204647
:104C78005F4A11F0D9FE02212046484A11F0D4FEBD
:104C880002212046D5F800315A4A11F0CDFE022102
:104C98002046D5F80431584A11F0C6FE02212046B4
:104CA800D5F80831554A11F0BFFED5F80C3102216C
:104CB8002046534A11F0B8FE02212046374A11F027
:104CC800B3FED5F8003101333FF41DAF2046D5F8C7
:104CD800203102214B4A11F0A7FE2046D5F8243195
:104CE8000221494A11F0A0FED5E94832C2F3072152
:104CF800D2B203921A0E0292C3F307420192C3F38F
:104D08000722204604910092DBB202213F4A11F0AB
:104D18008BFE20460221214A11F086FE2046D5F856
:104D2800283102213A4A11F07FFE2046D5F82C316D
:104D38000221384A11F078FED5E94A32C2F3072138
:104D4800D2B203921A0E0292C3F307420192C3F33E
:104D58000722204604910092DBB202212E4A11F06C
:104D680063FE204602210D4A11F05EFE204695F8AA
:104D780030310221294A11F057FE20460221D5F888
:104D88005431274A11F050FE02212046034A11F0FF
:104D98004BFEB8E60DF2010081F60100E0040200C6
:104DA800A3F60100BCF60100D5F60100EEF60100FD
:104DB80007F7010020F7010039F7010052F7010059
:104DC8006BF7010084F701009DF70100B7F70100B8
:104DD800D1F70100EBF7010005F801001FF8010009
:104DE80033F801004AF801005FF8010074F8010087
:104DF80089F801009EF80100B8F80100D2F8010016
:104E0800ECF8010006F901001EF9010036F901006D
:104E180064F901007CF9010094F90100C2F901006C
:104E2800D5F9010008B50021044810F0F6FBBDE8EB
:104E380008400349034810F0F0BB00BF20B8010048
:104E48008B0D030024B8010008B5054803685B070B
:104E580003D00121034A10F0EAFB6FF0070008BDF8
:104E680088100020FFFB0100002313B56424019380
:104E7800042209480DEB020107F002FE019B5B07C3
:104E880007D4013CF4D1FFF7DFFF6FF0070002B051
:104E980010BD0020FBE700BF04B8010098B50D481D
:104EA80000AF03685B0713D06C4688B06A460A4BAC
:104EB80005930A4B06934FF40073ADF81C30084B6A
:104EC80042F8103F00234FF4E25101F037FEA546A7
:104ED800BD4698BD8810002010FC0100833E0200EA
:104EE8000300000110B510F0A4FB044618B1FFF749
:104EF800D5FF204610BD0B21014810F08EFBF8E7C6
:104F080004900100B0B50C4682B00146194800AFC4
:104F180010F083FB2146184810F07FFB002364241F
:104F28007B6004221548B91807F0AAFD7B68DA07E8
:104F38001ED4013CF5D1124803685B0713D06D46B7
:104F480088B06A460F4B05930F4B06934FF40073D6
:104F5800ADF81C300D4B42F8103F4FF4E251234698
:104F680001F0ECFDAD466FF007000837BD46B0BD57
:104F78000020FAE708B801000CB8010004B80100E5
:104F8800881000201CFC0100963E0200030000016E
:104F98002DE9F047064601244FEA4008DFF87C90E7
:104FA80000AF0D1F08F1470855F8041F08EB04006F
:104FB800FFF7A8FFD9F8003010F1080F824603F078
:104FC80007030AD12BB101213346154A134811F0C2
:104FD800DCFA5046BD46BDE8F087022B16D9EA46F2
:104FE8008AB029686A460F4B0794CDE90536A300B5
:104FF80003F58E73CDE90831062342F8103F0023EC
:105008004FF44351054801F099FDD546631C032B25
:105018004FF00204C8D14FF0000ADAE788100020E8
:1050280036FC010058FC010030B550F82110039CF3
:1050380061B950F8222052BB50F823303BBB50F8DE
:1050480024000028134B18BF184630BD4D1C0BD147
:1050580050F8222001321AD150F82330013316D1EA
:1050680050F82400431CEDE70B4DA9420FD150F82E
:1050780022208A420BD150F82330934207D150F8AE
:105088002400044A98420CBF18461046DDE7014840
:10509800DBE700BFEFBEADDEFA50FA50F8B50546C3
:1050A8000C46FFF7E1FE58B1A94803685E0703D034
:1050B8000121A84A10F0BBFA6FF007063046F8BD88
:1050C800FFF7B0FE10F0B5FAB8B1A14C23685D0740
:1050D8000CD001212046A04A10F0A9FA23685807ED
:1050E80004D0012120469D4A10F0A1FA10F0A1FA3F
:1050F8000646FFF7F7FE0643E0E73B21984810F025
:105108008CFA42214FF4DC3010F087FAFFF7ACFE3E
:10511800064630B18E4803685907E7D0914A012105
:10512800E2E7562D34D8472D0DD8402D884F43D06F
:10513800442D00F08680864803685B07BED00121B5
:105148002B46894A5DE1A5F148030E2BF3D801A24D
:1051580052F823F0AD5200003F510000F752000012
:105168003F510000395300003F5100003F510000FB
:105178003F5100003F5100003F5100003F510000E7
:105188003F5100003F5100001F540000DF53000052
:10519800A5F157070E2FCED828462168FFF7B2FE93
:1051A80002466B480832036803F0070340F02C817D
:1051B800002B9BD06D4AB2E721682846FFF7A2FE74
:1051C80021684120FFF79EFE21684220FFF79AFEE2
:1051D80043202168FFF796FE3B6803F00703022B84
:1051E8007FF66CAF23684FF480723846604910F040
:1051F8002AFA3B6803F00703022B7FF65FAF2368A8
:105208004FF4827238465B4910F01DFA3B6803F090
:105218000703022B7FF652AF23684FF48472384697
:10522800554910F010FA3B6803F00703022B7FF68C
:1052380045AF23684FF486725049454810F003FA89
:105248003CE7043C284654F8041FFFF75BFE3B6824
:10525800083003F0070309D1002B3FF447AF0121C1
:105268002B46474A3A4811F090F93FE7022B05D9F7
:10527800236844493846AA0010F0E5F90135482D5D
:10528800E0D16FF001015520FFF73CFE3B6803F0C9
:105298000703022B7FF612AF6FF001034FF4AA72D7
:1052A8003949CAE721460020FFF772FE08303FF46B
:1052B8001DAF274C6FF002015520FFF723FE23682E
:1052C80003F00703022B7FF6F9AE032120462F4A8D
:1052D80010F0ADF9236803F00703022B7FF6EEAE5A
:1052E8006FF002034FF4AA7220462749A6E7214629
:1052F8000120FFF74DFE08303FF4F8AE144C6FF074
:1053080004015520FFF7FEFD236803F00703022B75
:105318007FF6D4AE032120461D4A10F088F9236891
:1053280003F00703022B7FF6C9AE6FF00403D9E739
:105338004C202168FFF7E6FD0830054D2CD12B687D
:105348005A073FF4D3AE01212846124ACCE600BFE3
:10535800881000207CFC010092FC0100BBFC0100CD
:1053680004900100D6FC010021FF0100B6FE0100F7
:10537800F3FC01001BFD010043FD01006BFD010072
:1053880093FD0100BCFD0100DEFD010006FE0100E9
:105398001CFE010032FE01006FF008015520FFF7E6
:1053A800B1FD2B6803F00703022B7FF687AE236855
:1053B8004FF498722846204910F045F92B6803F0FD
:1053C8000703022B7FF67AAE6FF008034FF4AA7238
:1053D80028461A4932E756202168FFF793FD02460E
:1053E80017480832036803F0070304D1002B3FF481
:1053F8007DAE144A93E6022B7FF660AE2368032144
:10540800114A11F0C2F859E6022B7FF657AE23680D
:105418000E493A4612E755202168FFF773FD084800
:10542800036803F00703022B7FF648AE23684FF4A6
:10543800AA72074902E700BF46FE0100DEFD01002F
:105448008810002068FE010090FE0100D7FE0100D0
:10545800F8FE01002DE9F04F83B000AF8046894681
:105468001646FFF701FD68B1354803685E0703D0AB
:10547800344A012110F0DBF86FF007000C37BD4605
:10548800BDE8F08FFFF7CEFCFFF72CFD28B12C48C4
:1054980003685D07F0D02C4AEBE701214FF4DC30BC
:1054A80010F0BBF8FFF7E0FC0446002843D024487E
:1054B80003685C07E0D0254ADBE7254804EB0801D0
:1054C80010F0ABF800234FF0640B09EB84057B6008
:1054D80004222048B91807F0D3FA7B68990724D426
:1054E800BBF1010BF4D1164D2B685A0722D0EA46BE
:1054F80088B06A46184B0593184B06934FF400730F
:10550800ADF81C30164B42F8103F4FF4E2515B46A1
:10551800284601F013FB2B68D5465B070AD001210A
:105528002846104A10F083F804E0042229460E4861
:1055380007F0A6FA0134B442BFDB10F07AF89DE711
:10554800881000207CFC01003CFF010056FF010090
:1055580010B8010004B8010073FF01006F3E02009B
:105568000300000177FF010014B801002DE9F041A4
:10557800884600AF002900F084800568012228468B
:1055880010F0B1F801460446284610F066F810EA13
:10559800020319D13C48026856070DD06E4688B000
:1055A8006A463A49CDE90518032142F8101F4FF41D
:1055B800C25101F0C3FAB546002383F31188BFF343
:1055C8006F8F0423184602DF2146284610F05BF847
:1055D800261831460022284610F03FF8361AB44201
:1055E8001BD02948036859070FD06E4688B0694612
:1055F800274BCDE90538032341F8103F13460A46E7
:105608004FF4C25101F09AFAB546002383F311888A
:10561800BFF36F8F0423184602DF00222146284675
:1056280010F037F8214610F02EF8261801223146DE
:10563800284610F012F8C20708D43146284610F060
:1056480094F832462146284610F006F900222146F1
:10565800284610F002F8261A0122314628460FF093
:10566800FCFFC30709D43146284610F07EF82246CD
:105678003146284610F0F0F834462146284610F006
:1056880009F9BD46BDE8F08184100020D4FF01006F
:10569800ABFF01002DE9F04F91B0009302F0040335
:1056A8000293C2F3C2030133840705460E46DDF8B0
:1056B80068A00392059340F09C81041D002849D1FD
:1056C80001F00706341DC6F10806009B00274FF0BD
:1056D80004085A1E4FF0FF33B9460193BB464346B0
:1056E80004970DB1009921600598002800F3D68031
:1056F8008F480099814203D38E488142C0F0CE8002
:105708000399601B11F0020C40F0D680B9F10F0F1D
:1057180000F2CF80002D00F0D68009F140010DEB9A
:10572800010E0199C0F387000EF8200C0EF8101C2A
:10573800BCF1000F00F0C38060F07F000EF8200C71
:10574800013709F10109C5F108014FF6DA7E043481
:1057580006918CE00729B8D86FF01B0011B0BDE89E
:10576800F08F7A285BD84B280FD8472857D8292894
:105778002ED8252850D052D8202818BF23280CBF4F
:105788004FF0010B4FF0000B71E04C382E2846D833
:10579800DFE800F06D4545454545454545454545E6
:1057A8004845454545454545455645484856565654
:1057B8006D486A456D4518481845457F7C484545FC
:1057C80048457C0000204FF0000B4FF0040835E0FE
:1057D80001212A38C0B201FA00F010EA0E0F46D1B2
:1057E80010F0625C2CD110EA010B40D06046013CFD
:1057F8004444B4FBF8F408FB04F425B1A3EB050C0E
:10580800A444B445A8D8002870D005990139059159
:105818005AF8041B009164E70199013901914FF08E
:10582800000B24E012F8010C6C2834D1002012F887
:10583800023C83466C2BC8D14FF008084346D6E794
:105848000AF1070A2AF0070A073424F00704FAE8DD
:1058580002BC35B106982044B0423FF67DAFC4E99A
:1058680000BC4FF0000B08344FF00808434612F80C
:10587800010F002853D0BBF1000F7FF472AF252829
:10588800F5D14FF0010B019B013301934FF0040850
:10589800ECE7584697E700208346A8E7039988076E
:1058A8007FF551AF4FF0010C601BB0F5007FFFF49E
:1058B8002DAF6FF0150051E74FF0000CF5E7049895
:1058C800013004903DE7BCF1000F01D0013638E704
:1058D8000298023600287FF434AF0098CDE90632EA
:1058E800FBF7FAFADDE9063206442AE7042B08D169
:1058F8000AF1040015B1DAF8001021608246043478
:10590800B5E70AF1070323F0070303F1080A1DB1FD
:10591800D3E90001C4E9000108230834A7E7631BA1
:10592800B3F5806FC5D23DB9A6F10804E01815E7B4
:10593800D0A40100C4D90200029A9B0828602B70E9
:105948009DF81030AAB1EB70AF702FB1002208A8F3
:10595800C5F1010C91450ED14FF0000AC5F10103C4
:105968000DF1200801930DF1300BD14512D1601BC8
:10597800F4E66B70E8E710F8013B190608D50CEB64
:10598800040EB64503F07F033FF6E6AE04F8013B8C
:105998000132DFE71FB198F90020002A17DB029BCC
:1059A800D3B11AF80B2004F8012B0022019B181917
:1059B8001044B0423FF6D0AE98F80000009904F8C1
:1059C800010B2046039214F03BFB039A14440AF19E
:1059D800010A08F10108C8E798F8002055F82230B4
:1059E8000093029B009845F82230FBF775FA421C99
:1059F800DCE76FF00D00B1E62DE9F04F97B000AF8E
:105A080005468A46C7E90A3249B903784678807854
:105A180000EB83002844564524D8A0EB050AD7F8A4
:105A2800803095F8028003F00103D7F88040FB61CD
:105A3800EB78B8F1000F0CBF002404F001047B627E
:105A48001BB1D7F880309A0715D4A4B9FB6A1BB1EB
:105A580051462846BA6A9847564630465C37BD468E
:105A6800BDE8F08F441C2046FBF736FA013020448D
:105A78000AF1010ACFE7D7F88030C3F3C0033B62CD
:105A88002B78BB619B003B616B687B61BB6905EB55
:105A9800830BFB6A002B7BD15646D844BCB11C460D
:105AA8001BF8013B55F82300FBF716FAD7F88430AA
:105AB800013043B1D7F88830A34282BFD7F8843089
:105AC80023F814000134C3450644E9D1D846D7F871
:105AD80080304FF0000913F0050F0CBF4FF0020B98
:105AE8004FF0010B7B6A9945B7D298F8013008F15D
:105AF800020855F823A0B04B9A45C0F05081AF4B2F
:105B08003A6A9A452CBF002301232AB318F8021CCD
:105B18007869FB6210F042F8FB6AE8B1A8480368AC
:105B280013F0060F14D0EA468AB06A46A54B0593CF
:105B38007B69CDE906314FF40073ADF82030A24BF4
:105B480042F8103F00234FF4125100F0F7FFD546FA
:105B5800023E09F10109C5E723B1FB6933B9A6EB98
:105B68000B06F6E7D7F880309B07F2D55046FBF7CF
:105B7800B3F9D7F884304BB1D7F888309C423FBF8F
:105B8800D7F88420431C22F8143001340644E0E797
:105B9800002C6AD1B8F1000F6DD0D7F880305807C3
:105BA8006CD5C14607F148004246594614F048FAF8
:105BB80000220BEB0803FB600233796A8A425FD349
:105BC800D7F8802095F801B0F969920704EB0B0328
:105BD80048BF0022DBB258BF4FEA5902002940F003
:105BE800A680D7F8801011F0040F14BF4946002191
:105BF8006B70A970EA702846BA6A3969FB6A9847D7
:105C0800061EFFF62AAFBB6949462B707B6ABA6A43
:105C1800EB7085F801B0FB6A85F8028007F148004F
:105C28009847B0F10009C0F2B6803B697A6A786A91
:105C380003EB4201FB68414403EB4000BA6AFB6A8C
:105C4800AAEB010198470028C0F2A7804FF0000B8B
:105C5800B14409EB000607F1380AA34569D30021CE
:105C6800BA6A0846FB6A9847F7E644464FF00009C7
:105C780007F1380098E74446C14699E7A14697E7F7
:105C880013F8016CDFF830C155F8260013F8021C30
:105C98006045C0F08A80DFF824C16045386A2CBFAF
:105CA8004FF0000B4FF0010B38B17869C7E90132AA
:105CB8000FF074FFD7E90132F0B9BBF1000F1ED025
:105CC800F96949B1611C04F1280007F1300404198D
:105CD80004F8206CCCB20FE0D7F8801049070BD538
:105CE80009F1280007F1300C09F1010100EB0C095A
:105CF80009F8106C5FFA81F9013202335DE7D7F8D1
:105D080080008007DED409F1280C07F1300EF44436
:105D180009F101000CF8101C07F1580109F10209FA
:105D280051FA80F05FFA89F900F8106CE4E7002175
:105D38005EE71BF80A3055F8239087F83730D7F814
:105D480084302BB3D7F888309B4521D2D7F88430DC
:105D580033F81B800121BA6AFB6A07F137009847BC
:105D680000281ADB0644B8F1000F06D14846FBF7B5
:105D7800B3F800F101081FFA88F841464846BA6AA4
:105D8800FB6A9847002808DB06440BF1010B64E71F
:105D98004FF00008DEE74E465FE606465DE63B6AE2
:105DA800002B3FF4DFAE0023B0E6386A0028A6D007
:105DB8004FF0000B79E700BFD0A40100C4D902005E
:105DC80064100020010002000400000130B5044600
:105DD800EFF31185202383F31288BFF36F8F044BF1
:105DE8000FCB84E80F0085F31188BFF36F8F30BDA8
:105DF8007811002001281FB50C4605D004281ED0B4
:105E08006FF0150004B010BD13F00AFD47F612221A
:105E18000023FBF735F84FF4FA435A43C4E900016D
:105E2800A2606846FFF7D2FF694620460FF0D3FE0E
:105E380018B90A4B0FCB84E80F000020E2E713F0F3
:105E4800EFFC47F612220023FBF71AF84FF4FA4347
:105E58005A43C4E90001A260EFE700BF00AA0100AD
:105E680001287FB50D462DD18A68184B9A4229D84A
:105E780013F0D6FC47F612220023FBF701F8144B67
:105E8800404202FB03F361EB4101CDE900016846A2
:105E9800029300F0C5F8294668460FF09CFEEFF320
:105EA8001186202383F31288BFF36F8F9DE80F00BC
:105EB800084D85E80F0086F31188BFF36F8F002027
:105EC80004B070BD6FF01500FAE700BFFFC99A3B38
:105ED8000083FFFF78110020014B1860704700BF56
:105EE800F401002080B505460E461746984609F08D
:105EF8002BFD034604F02EF80446DFF818904246BE
:105F080049F8003039463046A84754F8090003F0EC
:105F180079FF00BF100000002DE9F84340F26C73D0
